{
  "_format": "hh-sol-artifact-1",
  "contractName": "Access",
  "sourceName": "contracts/Access.sol",
  "abi": [
    {
      "inputs": [
        {
          "internalType": "address",
          "name": "_user",
          "type": "address"
        },
        {
          "internalType": "address",
          "name": "_recipient",
          "type": "address"
        }
      ],
      "name": "check_consent",
      "outputs": [
        {
          "internalType": "bool",
          "name": "",
          "type": "bool"
        }
      ],
      "stateMutability": "view",
      "type": "function"
    },
    {
      "inputs": [
        {
          "internalType": "address",
          "name": "",
          "type": "address"
        },
        {
          "internalType": "address",
          "name": "",
          "type": "address"
        }
      ],
      "name": "consent",
      "outputs": [
        {
          "internalType": "bool",
          "name": "",
          "type": "bool"
        }
      ],
      "stateMutability": "view",
      "type": "function"
    },
    {
      "inputs": [
        {
          "internalType": "address",
          "name": "",
          "type": "address"
        }
      ],
      "name": "data",
      "outputs": [
        {
          "internalType": "string",
          "name": "",
          "type": "string"
        }
      ],
      "stateMutability": "view",
      "type": "function"
    },
    {
      "inputs": [
        {
          "internalType": "address",
          "name": "_user",
          "type": "address"
        },
        {
          "internalType": "address",
          "name": "_recipient",
          "type": "address"
        }
      ],
      "name": "getData",
      "outputs": [
        {
          "internalType": "string",
          "name": "_data",
          "type": "string"
        }
      ],
      "stateMutability": "view",
      "type": "function"
    },
    {
      "inputs": [
        {
          "internalType": "address",
          "name": "_user",
          "type": "address"
        },
        {
          "internalType": "address",
          "name": "_recipient",
          "type": "address"
        },
        {
          "internalType": "string",
          "name": "url",
          "type": "string"
        }
      ],
      "name": "give_consent",
      "outputs": [],
      "stateMutability": "nonpayable",
      "type": "function"
    },
    {
      "inputs": [
        {
          "internalType": "address",
          "name": "_user",
          "type": "address"
        },
        {
          "internalType": "address",
          "name": "_recipient",
          "type": "address"
        }
      ],
      "name": "revoke_consent",
      "outputs": [],
      "stateMutability": "nonpayable",
      "type": "function"
    }
  ],
  "bytecode": "0x608060405234801561001057600080fd5b50610fc4806100206000396000f3fe608060405234801561001057600080fd5b50600436106100625760003560e01c806332e76001146100675780638ecbe6a314610083578063b3ac42ec146100b3578063b4909307146100e3578063b90d3d0c14610113578063f9f9933114610143575b600080fd5b610081600480360381019061007c91906108f5565b61015f565b005b61009d60048036038101906100989190610969565b610385565b6040516100aa91906109c4565b60405180910390f35b6100cd60048036038101906100c89190610969565b6103b4565b6040516100da91906109c4565b60405180910390f35b6100fd60048036038101906100f89190610969565b61044c565b60405161010a9190610a6f565b60405180910390f35b61012d60048036038101906101289190610a91565b6105b3565b60405161013a9190610a6f565b60405180910390f35b61015d60048036038101906101589190610969565b610653565b005b8373ffffffffffffffffffffffffffffffffffffffff163373ffffffffffffffffffffffffffffffffffffffff16146101cd576040517f08c379a00000000000000000000000000000000000000000000000000000000081526004016101c490610b0a565b60405180910390fd5b600015156000808673ffffffffffffffffffffffffffffffffffffffff1673ffffffffffffffffffffffffffffffffffffffff16815260200190815260200160002060008573ffffffffffffffffffffffffffffffffffffffff1673ffffffffffffffffffffffffffffffffffffffff16815260200190815260200160002060009054906101000a900460ff1615151461029c576040517f08c379a000000000000000000000000000000000000000000000000000000000815260040161029390610b76565b60405180910390fd5b60016000808673ffffffffffffffffffffffffffffffffffffffff1673ffffffffffffffffffffffffffffffffffffffff16815260200190815260200160002060008573ffffffffffffffffffffffffffffffffffffffff1673ffffffffffffffffffffffffffffffffffffffff16815260200190815260200160002060006101000a81548160ff0219169083151502179055508181600160008673ffffffffffffffffffffffffffffffffffffffff1673ffffffffffffffffffffffffffffffffffffffff168152602001908152602001600020918261037e929190610de6565b5050505050565b60006020528160005260406000206020528060005260406000206000915091509054906101000a900460ff1681565b6000806000808573ffffffffffffffffffffffffffffffffffffffff1673ffffffffffffffffffffffffffffffffffffffff16815260200190815260200160002060008473ffffffffffffffffffffffffffffffffffffffff1673ffffffffffffffffffffffffffffffffffffffff16815260200190815260200160002060009054906101000a900460ff1690508091505092915050565b6060600115156000808573ffffffffffffffffffffffffffffffffffffffff1673ffffffffffffffffffffffffffffffffffffffff16815260200190815260200160002060008473ffffffffffffffffffffffffffffffffffffffff1673ffffffffffffffffffffffffffffffffffffffff16815260200190815260200160002060009054906101000a900460ff161515036105ad57600160008373ffffffffffffffffffffffffffffffffffffffff1673ffffffffffffffffffffffffffffffffffffffff168152602001908152602001600020805461052c90610bff565b80601f016020809104026020016040519081016040528092919081815260200182805461055890610bff565b80156105a55780601f1061057a576101008083540402835291602001916105a5565b820191906000526020600020905b81548152906001019060200180831161058857829003601f168201915b505050505090505b92915050565b600160205280600052604060002060009150905080546105d290610bff565b80601f01602080910402602001604051908101604052809291908181526020018280546105fe90610bff565b801561064b5780601f106106205761010080835404028352916020019161064b565b820191906000526020600020905b81548152906001019060200180831161062e57829003601f168201915b505050505081565b8173ffffffffffffffffffffffffffffffffffffffff163373ffffffffffffffffffffffffffffffffffffffff16146106c1576040517f08c379a00000000000000000000000000000000000000000000000000000000081526004016106b890610f02565b60405180910390fd5b600115156000808473ffffffffffffffffffffffffffffffffffffffff1673ffffffffffffffffffffffffffffffffffffffff16815260200190815260200160002060008373ffffffffffffffffffffffffffffffffffffffff1673ffffffffffffffffffffffffffffffffffffffff16815260200190815260200160002060009054906101000a900460ff16151514610790576040517f08c379a000000000000000000000000000000000000000000000000000000000815260040161078790610f6e565b60405180910390fd5b60008060008473ffffffffffffffffffffffffffffffffffffffff1673ffffffffffffffffffffffffffffffffffffffff16815260200190815260200160002060008373ffffffffffffffffffffffffffffffffffffffff1673ffffffffffffffffffffffffffffffffffffffff16815260200190815260200160002060006101000a81548160ff0219169083151502179055505050565b600080fd5b600080fd5b600073ffffffffffffffffffffffffffffffffffffffff82169050919050565b600061085d82610832565b9050919050565b61086d81610852565b811461087857600080fd5b50565b60008135905061088a81610864565b92915050565b600080fd5b600080fd5b600080fd5b60008083601f8401126108b5576108b4610890565b5b8235905067ffffffffffffffff8111156108d2576108d1610895565b5b6020830191508360018202830111156108ee576108ed61089a565b5b9250929050565b6000806000806060858703121561090f5761090e610828565b5b600061091d8782880161087b565b945050602061092e8782880161087b565b935050604085013567ffffffffffffffff81111561094f5761094e61082d565b5b61095b8782880161089f565b925092505092959194509250565b600080604083850312156109805761097f610828565b5b600061098e8582860161087b565b925050602061099f8582860161087b565b9150509250929050565b60008115159050919050565b6109be816109a9565b82525050565b60006020820190506109d960008301846109b5565b92915050565b600081519050919050565b600082825260208201905092915050565b60005b83811015610a195780820151818401526020810190506109fe565b60008484015250505050565b6000601f19601f8301169050919050565b6000610a41826109df565b610a4b81856109ea565b9350610a5b8185602086016109fb565b610a6481610a25565b840191505092915050565b60006020820190508181036000830152610a898184610a36565b905092915050565b600060208284031215610aa757610aa6610828565b5b6000610ab58482850161087b565b91505092915050565b7f6f6e6c7920757365722063616e20676976652061636365737300000000000000600082015250565b6000610af46019836109ea565b9150610aff82610abe565b602082019050919050565b60006020820190508181036000830152610b2381610ae7565b9050919050565b7f796f7520616c7265616479206861766520616363657373000000000000000000600082015250565b6000610b606017836109ea565b9150610b6b82610b2a565b602082019050919050565b60006020820190508181036000830152610b8f81610b53565b9050919050565b600082905092915050565b7f4e487b7100000000000000000000000000000000000000000000000000000000600052604160045260246000fd5b7f4e487b7100000000000000000000000000000000000000000000000000000000600052602260045260246000fd5b60006002820490506001821680610c1757607f821691505b602082108103610c2a57610c29610bd0565b5b50919050565b60008190508160005260206000209050919050565b60006020601f8301049050919050565b600082821b905092915050565b600060088302610c927fffffffffffffffffffffffffffffffffffffffffffffffffffffffffffffffff82610c55565b610c9c8683610c55565b95508019841693508086168417925050509392505050565b6000819050919050565b6000819050919050565b6000610ce3610cde610cd984610cb4565b610cbe565b610cb4565b9050919050565b6000819050919050565b610cfd83610cc8565b610d11610d0982610cea565b848454610c62565b825550505050565b600090565b610d26610d19565b610d31818484610cf4565b505050565b5b81811015610d5557610d4a600082610d1e565b600181019050610d37565b5050565b601f821115610d9a57610d6b81610c30565b610d7484610c45565b81016020851015610d83578190505b610d97610d8f85610c45565b830182610d36565b50505b505050565b600082821c905092915050565b6000610dbd60001984600802610d9f565b1980831691505092915050565b6000610dd68383610dac565b9150826002028217905092915050565b610df08383610b96565b67ffffffffffffffff811115610e0957610e08610ba1565b5b610e138254610bff565b610e1e828285610d59565b6000601f831160018114610e4d5760008415610e3b578287013590505b610e458582610dca565b865550610ead565b601f198416610e5b86610c30565b60005b82811015610e8357848901358255600182019150602085019450602081019050610e5e565b86831015610ea05784890135610e9c601f891682610dac565b8355505b6001600288020188555050505b50505050505050565b7f6f6e6c7920757365722063616e207265766f6b65206163636573730000000000600082015250565b6000610eec601b836109ea565b9150610ef782610eb6565b602082019050919050565b60006020820190508181036000830152610f1b81610edf565b9050919050565b7f726563697069656e7420646f6e74206861766520616363657373000000000000600082015250565b6000610f58601a836109ea565b9150610f6382610f22565b602082019050919050565b60006020820190508181036000830152610f8781610f4b565b905091905056fea26469706673582212206d63a18dd155685df0b5f163ff5c8beb600e7466c4539eb999c791ae174d431264736f6c63430008110033",
  "linkReferences": {},
  "deployedLinkReferences": {}
}